{
  "contractName": "ClassToken",
  "abi": [
    {
      "constant": true,
      "inputs": [],
      "name": "name",
      "outputs": [
        {
          "name": "",
          "type": "string"
        }
      ],
      "payable": false,
      "stateMutability": "view",
      "type": "function"
    },
    {
      "constant": true,
      "inputs": [],
      "name": "decimals",
      "outputs": [
        {
          "name": "",
          "type": "uint8"
        }
      ],
      "payable": false,
      "stateMutability": "view",
      "type": "function"
    },
    {
      "constant": true,
      "inputs": [],
      "name": "owner",
      "outputs": [
        {
          "name": "",
          "type": "address"
        }
      ],
      "payable": false,
      "stateMutability": "view",
      "type": "function"
    },
    {
      "constant": true,
      "inputs": [],
      "name": "symbol",
      "outputs": [
        {
          "name": "",
          "type": "string"
        }
      ],
      "payable": false,
      "stateMutability": "view",
      "type": "function"
    },
    {
      "inputs": [],
      "payable": false,
      "stateMutability": "nonpayable",
      "type": "constructor"
    },
    {
      "anonymous": false,
      "inputs": [
        {
          "indexed": true,
          "name": "owner",
          "type": "address"
        },
        {
          "indexed": true,
          "name": "spender",
          "type": "address"
        },
        {
          "indexed": false,
          "name": "value",
          "type": "uint256"
        }
      ],
      "name": "Approval",
      "type": "event"
    },
    {
      "anonymous": false,
      "inputs": [
        {
          "indexed": true,
          "name": "from",
          "type": "address"
        },
        {
          "indexed": true,
          "name": "to",
          "type": "address"
        },
        {
          "indexed": false,
          "name": "value",
          "type": "uint256"
        }
      ],
      "name": "Transfer",
      "type": "event"
    },
    {
      "anonymous": false,
      "inputs": [
        {
          "indexed": true,
          "name": "to",
          "type": "address"
        },
        {
          "indexed": false,
          "name": "amount",
          "type": "uint256"
        }
      ],
      "name": "Mint",
      "type": "event"
    },
    {
      "constant": true,
      "inputs": [],
      "name": "totalSupply",
      "outputs": [
        {
          "name": "",
          "type": "uint256"
        }
      ],
      "payable": false,
      "stateMutability": "view",
      "type": "function"
    },
    {
      "constant": false,
      "inputs": [
        {
          "name": "_to",
          "type": "address"
        },
        {
          "name": "_value",
          "type": "uint256"
        }
      ],
      "name": "transfer",
      "outputs": [
        {
          "name": "",
          "type": "bool"
        }
      ],
      "payable": false,
      "stateMutability": "nonpayable",
      "type": "function"
    },
    {
      "constant": true,
      "inputs": [
        {
          "name": "_owner",
          "type": "address"
        }
      ],
      "name": "balanceOf",
      "outputs": [
        {
          "name": "",
          "type": "uint256"
        }
      ],
      "payable": false,
      "stateMutability": "view",
      "type": "function"
    },
    {
      "constant": false,
      "inputs": [
        {
          "name": "_from",
          "type": "address"
        },
        {
          "name": "_to",
          "type": "address"
        },
        {
          "name": "_value",
          "type": "uint256"
        }
      ],
      "name": "transferFrom",
      "outputs": [
        {
          "name": "",
          "type": "bool"
        }
      ],
      "payable": false,
      "stateMutability": "nonpayable",
      "type": "function"
    },
    {
      "constant": false,
      "inputs": [
        {
          "name": "_spender",
          "type": "address"
        },
        {
          "name": "_value",
          "type": "uint256"
        }
      ],
      "name": "approve",
      "outputs": [
        {
          "name": "",
          "type": "bool"
        }
      ],
      "payable": false,
      "stateMutability": "nonpayable",
      "type": "function"
    },
    {
      "constant": true,
      "inputs": [
        {
          "name": "_owner",
          "type": "address"
        },
        {
          "name": "_spender",
          "type": "address"
        }
      ],
      "name": "allowance",
      "outputs": [
        {
          "name": "",
          "type": "uint256"
        }
      ],
      "payable": false,
      "stateMutability": "view",
      "type": "function"
    },
    {
      "constant": false,
      "inputs": [
        {
          "name": "_to",
          "type": "address"
        },
        {
          "name": "_amount",
          "type": "uint256"
        }
      ],
      "name": "mint",
      "outputs": [
        {
          "name": "",
          "type": "bool"
        }
      ],
      "payable": false,
      "stateMutability": "nonpayable",
      "type": "function"
    }
  ],
  "bytecode": "0x60806040526040805190810160405280600b81526020017f436c61737320546f6b656e00000000000000000000000000000000000000000081525060009080519060200190620000519291906200015f565b506040805190810160405280600381526020017f434c530000000000000000000000000000000000000000000000000000000000815250600190805190602001906200009f9291906200015f565b506012600260006101000a81548160ff021916908360ff160217905550348015620000c957600080fd5b5033600260016101000a81548173ffffffffffffffffffffffffffffffffffffffff021916908373ffffffffffffffffffffffffffffffffffffffff16021790555069d3c21bcecceda1000000600460003373ffffffffffffffffffffffffffffffffffffffff1673ffffffffffffffffffffffffffffffffffffffff168152602001908152602001600020819055506200020e565b828054600181600116156101000203166002900490600052602060002090601f016020900481019282601f10620001a257805160ff1916838001178555620001d3565b82800160010185558215620001d3579182015b82811115620001d2578251825591602001919060010190620001b5565b5b509050620001e29190620001e6565b5090565b6200020b91905b8082111562000207576000816000905550600101620001ed565b5090565b90565b61105c806200021e6000396000f3006080604052600436106100af576000357c0100000000000000000000000000000000000000000000000000000000900463ffffffff16806306fdde03146100b4578063095ea7b31461014457806318160ddd146101a957806323b872dd146101d4578063313ce5671461025957806340c10f191461028a57806370a08231146102ef5780638da5cb5b1461034657806395d89b411461039d578063a9059cbb1461042d578063dd62ed3e14610492575b600080fd5b3480156100c057600080fd5b506100c9610509565b6040518080602001828103825283818151815260200191508051906020019080838360005b838110156101095780820151818401526020810190506100ee565b50505050905090810190601f1680156101365780820380516001836020036101000a031916815260200191505b509250505060405180910390f35b34801561015057600080fd5b5061018f600480360381019080803573ffffffffffffffffffffffffffffffffffffffff169060200190929190803590602001909291905050506105a7565b604051808215151515815260200191505060405180910390f35b3480156101b557600080fd5b506101be610699565b6040518082815260200191505060405180910390f35b3480156101e057600080fd5b5061023f600480360381019080803573ffffffffffffffffffffffffffffffffffffffff169060200190929190803573ffffffffffffffffffffffffffffffffffffffff169060200190929190803590602001909291905050506106a3565b604051808215151515815260200191505060405180910390f35b34801561026557600080fd5b5061026e610a62565b604051808260ff1660ff16815260200191505060405180910390f35b34801561029657600080fd5b506102d5600480360381019080803573ffffffffffffffffffffffffffffffffffffffff16906020019092919080359060200190929190505050610a75565b604051808215151515815260200191505060405180910390f35b3480156102fb57600080fd5b50610330600480360381019080803573ffffffffffffffffffffffffffffffffffffffff169060200190929190505050610c41565b6040518082815260200191505060405180910390f35b34801561035257600080fd5b5061035b610c8a565b604051808273ffffffffffffffffffffffffffffffffffffffff1673ffffffffffffffffffffffffffffffffffffffff16815260200191505060405180910390f35b3480156103a957600080fd5b506103b2610cb0565b6040518080602001828103825283818151815260200191508051906020019080838360005b838110156103f25780820151818401526020810190506103d7565b50505050905090810190601f16801561041f5780820380516001836020036101000a031916815260200191505b509250505060405180910390f35b34801561043957600080fd5b50610478600480360381019080803573ffffffffffffffffffffffffffffffffffffffff16906020019092919080359060200190929190505050610d4e565b604051808215151515815260200191505060405180910390f35b34801561049e57600080fd5b506104f3600480360381019080803573ffffffffffffffffffffffffffffffffffffffff169060200190929190803573ffffffffffffffffffffffffffffffffffffffff169060200190929190505050610f72565b6040518082815260200191505060405180910390f35b60008054600181600116156101000203166002900480601f01602080910402602001604051908101604052809291908181526020018280546001816001161561010002031660029004801561059f5780601f106105745761010080835404028352916020019161059f565b820191906000526020600020905b81548152906001019060200180831161058257829003601f168201915b505050505081565b600081600360003373ffffffffffffffffffffffffffffffffffffffff1673ffffffffffffffffffffffffffffffffffffffff16815260200190815260200160002060008573ffffffffffffffffffffffffffffffffffffffff1673ffffffffffffffffffffffffffffffffffffffff168152602001908152602001600020819055508273ffffffffffffffffffffffffffffffffffffffff163373ffffffffffffffffffffffffffffffffffffffff167f8c5be1e5ebec7d5bd14f71427d1e84f3dd0314c0f7b2291e5b200ac8c7c3b925846040518082815260200191505060405180910390a36001905092915050565b6000600554905090565b60008073ffffffffffffffffffffffffffffffffffffffff168373ffffffffffffffffffffffffffffffffffffffff16141515156106e057600080fd5b600460008573ffffffffffffffffffffffffffffffffffffffff1673ffffffffffffffffffffffffffffffffffffffff16815260200190815260200160002054821115151561072e57600080fd5b600360008573ffffffffffffffffffffffffffffffffffffffff1673ffffffffffffffffffffffffffffffffffffffff16815260200190815260200160002060003373ffffffffffffffffffffffffffffffffffffffff1673ffffffffffffffffffffffffffffffffffffffff1681526020019081526020016000205482111515156107b957600080fd5b61080b82600460008773ffffffffffffffffffffffffffffffffffffffff1673ffffffffffffffffffffffffffffffffffffffff16815260200190815260200160002054610ff990919063ffffffff16565b600460008673ffffffffffffffffffffffffffffffffffffffff1673ffffffffffffffffffffffffffffffffffffffff168152602001908152602001600020819055506108a082600460008673ffffffffffffffffffffffffffffffffffffffff1673ffffffffffffffffffffffffffffffffffffffff1681526020019081526020016000205461101290919063ffffffff16565b600460008573ffffffffffffffffffffffffffffffffffffffff1673ffffffffffffffffffffffffffffffffffffffff1681526020019081526020016000208190555061097282600360008773ffffffffffffffffffffffffffffffffffffffff1673ffffffffffffffffffffffffffffffffffffffff16815260200190815260200160002060003373ffffffffffffffffffffffffffffffffffffffff1673ffffffffffffffffffffffffffffffffffffffff16815260200190815260200160002054610ff990919063ffffffff16565b600360008673ffffffffffffffffffffffffffffffffffffffff1673ffffffffffffffffffffffffffffffffffffffff16815260200190815260200160002060003373ffffffffffffffffffffffffffffffffffffffff1673ffffffffffffffffffffffffffffffffffffffff168152602001908152602001600020819055508273ffffffffffffffffffffffffffffffffffffffff168473ffffffffffffffffffffffffffffffffffffffff167fddf252ad1be2c89b69c2b068fc378daa952ba7f163c4a11628f55a4df523b3ef846040518082815260200191505060405180910390a3600190509392505050565b600260009054906101000a900460ff1681565b6000600260019054906101000a900473ffffffffffffffffffffffffffffffffffffffff1673ffffffffffffffffffffffffffffffffffffffff163373ffffffffffffffffffffffffffffffffffffffff16141515610ad357600080fd5b610ae88260055461101290919063ffffffff16565b600581905550610b4082600460008673ffffffffffffffffffffffffffffffffffffffff1673ffffffffffffffffffffffffffffffffffffffff1681526020019081526020016000205461101290919063ffffffff16565b600460008573ffffffffffffffffffffffffffffffffffffffff1673ffffffffffffffffffffffffffffffffffffffff168152602001908152602001600020819055508273ffffffffffffffffffffffffffffffffffffffff167f0f6798a560793a54c3bcfe86a93cde1e73087d944c0ea20544137d4121396885836040518082815260200191505060405180910390a28273ffffffffffffffffffffffffffffffffffffffff16600073ffffffffffffffffffffffffffffffffffffffff167fddf252ad1be2c89b69c2b068fc378daa952ba7f163c4a11628f55a4df523b3ef846040518082815260200191505060405180910390a36001905092915050565b6000600460008373ffffffffffffffffffffffffffffffffffffffff1673ffffffffffffffffffffffffffffffffffffffff168152602001908152602001600020549050919050565b600260019054906101000a900473ffffffffffffffffffffffffffffffffffffffff1681565b60018054600181600116156101000203166002900480601f016020809104026020016040519081016040528092919081815260200182805460018160011615610100020316600290048015610d465780601f10610d1b57610100808354040283529160200191610d46565b820191906000526020600020905b815481529060010190602001808311610d2957829003601f168201915b505050505081565b60008073ffffffffffffffffffffffffffffffffffffffff168373ffffffffffffffffffffffffffffffffffffffff1614151515610d8b57600080fd5b600460003373ffffffffffffffffffffffffffffffffffffffff1673ffffffffffffffffffffffffffffffffffffffff168152602001908152602001600020548211151515610dd957600080fd5b610e2b82600460003373ffffffffffffffffffffffffffffffffffffffff1673ffffffffffffffffffffffffffffffffffffffff16815260200190815260200160002054610ff990919063ffffffff16565b600460003373ffffffffffffffffffffffffffffffffffffffff1673ffffffffffffffffffffffffffffffffffffffff16815260200190815260200160002081905550610ec082600460008673ffffffffffffffffffffffffffffffffffffffff1673ffffffffffffffffffffffffffffffffffffffff1681526020019081526020016000205461101290919063ffffffff16565b600460008573ffffffffffffffffffffffffffffffffffffffff1673ffffffffffffffffffffffffffffffffffffffff168152602001908152602001600020819055508273ffffffffffffffffffffffffffffffffffffffff163373ffffffffffffffffffffffffffffffffffffffff167fddf252ad1be2c89b69c2b068fc378daa952ba7f163c4a11628f55a4df523b3ef846040518082815260200191505060405180910390a36001905092915050565b6000600360008473ffffffffffffffffffffffffffffffffffffffff1673ffffffffffffffffffffffffffffffffffffffff16815260200190815260200160002060008373ffffffffffffffffffffffffffffffffffffffff1673ffffffffffffffffffffffffffffffffffffffff16815260200190815260200160002054905092915050565b600082821115151561100757fe5b818303905092915050565b600080828401905083811015151561102657fe5b80915050929150505600a165627a7a72305820296f1d8a5f45c5222b3ac8e8d853606c8677809b7962a57091fafe0de3b28e270029",
  "source": "pragma solidity ^0.4.23;\n\nimport \"zeppelin-solidity/contracts/math/SafeMath.sol\";\n\ncontract ClassToken {\n  using SafeMath for uint256;\n\n  string public name = \"Class Token\";\n  string public symbol = \"CLS\";\n  uint8 public decimals = 18;\n\n  address public owner;\n\n  mapping (address => mapping (address => uint256)) internal allowed;\n\n  mapping(address => uint256) balances;\n\n  uint256 totalSupply_;\n\n  event Approval(address indexed owner, address indexed spender, uint256 value);\n  event Transfer(address indexed from, address indexed to, uint256 value);\n  event Mint(address indexed to, uint256 amount);\n  \n  /**\n   * @dev Throws if called by any account other than the owner.\n   */\n  modifier onlyOwner() {\n    require(msg.sender == owner);\n    _;\n  }\n\n  constructor () public {\n    owner = msg.sender;\n    balances[msg.sender] = 1000000 * 10 ** 18;\n  } \n\n  /**\n  * @dev total number of tokens in existence\n  */\n  function totalSupply() public view returns (uint256) {\n    return totalSupply_;\n  }\n\n  /**\n  * @dev transfer token for a specified address\n  * @param _to The address to transfer to.\n  * @param _value The amount to be transferred.\n  */\n  function transfer(address _to, uint256 _value) public returns (bool) {\n    require(_to != address(0));\n    require(_value <= balances[msg.sender]);\n\n    balances[msg.sender] = balances[msg.sender].sub(_value);\n    balances[_to] = balances[_to].add(_value);\n    emit Transfer(msg.sender, _to, _value);\n    return true;\n  }\n\n  /**\n  * @dev Gets the balance of the specified address.\n  * @param _owner The address to query the the balance of.\n  * @return An uint256 representing the amount owned by the passed address.\n  */\n  function balanceOf(address _owner) public view returns (uint256) {\n    return balances[_owner];\n  }\n\n  /**\n   * @dev Transfer tokens from one address to another\n   * @param _from address The address which you want to send tokens from\n   * @param _to address The address which you want to transfer to\n   * @param _value uint256 the amount of tokens to be transferred\n   */\n  function transferFrom(address _from, address _to, uint256 _value) public returns (bool) {\n    require(_to != address(0));\n    require(_value <= balances[_from]);\n    require(_value <= allowed[_from][msg.sender]);\n\n    balances[_from] = balances[_from].sub(_value);\n    balances[_to] = balances[_to].add(_value);\n    allowed[_from][msg.sender] = allowed[_from][msg.sender].sub(_value);\n    emit Transfer(_from, _to, _value);\n    return true;\n  }\n\n  /**\n   * @dev Approve the passed address to spend the specified amount of tokens on behalf of msg.sender.\n   *\n   * Beware that changing an allowance with this method brings the risk that someone may use both the old\n   * and the new allowance by unfortunate transaction ordering. One possible solution to mitigate this\n   * race condition is to first reduce the spender's allowance to 0 and set the desired value afterwards:\n   * https://github.com/ethereum/EIPs/issues/20#issuecomment-263524729\n   * @param _spender The address which will spend the funds.\n   * @param _value The amount of tokens to be spent.\n   */\n  function approve(address _spender, uint256 _value) public returns (bool) {\n    allowed[msg.sender][_spender] = _value;\n    emit Approval(msg.sender, _spender, _value);\n    return true;\n  }\n\n  /**\n   * @dev Function to check the amount of tokens that an owner allowed to a spender.\n   * @param _owner address The address which owns the funds.\n   * @param _spender address The address which will spend the funds.\n   * @return A uint256 specifying the amount of tokens still available for the spender.\n   */\n  function allowance(address _owner, address _spender) public view returns (uint256) {\n    return allowed[_owner][_spender];\n  }\n\n  /**\n   * MintableToken\n   */\n\n  /**\n   * @dev Function to mint tokens\n   * @param _to The address that will receive the minted tokens.\n   * @param _amount The amount of tokens to mint.\n   * @return A boolean that indicates if the operation was successful.\n   */\n  function mint(address _to, uint256 _amount) onlyOwner public returns (bool) {\n    totalSupply_ = totalSupply_.add(_amount);\n    balances[_to] = balances[_to].add(_amount);\n    emit Mint(_to, _amount);\n    emit Transfer(address(0), _to, _amount);\n    return true;\n  }\n}\n",
  "sourcePath": "/Users/maheshmurthy/training/training-contracts/contracts/ClassToken.sol",
  "compiler": {
    "name": "solc",
    "version": "0.4.23+commit.124ca40d.Emscripten.clang"
  },
  "schemaVersion": "2.0.0",
  "updatedAt": "2018-04-25T00:42:42.647Z"
}