{
  "contractName": "Class",
  "abi": [
    {
      "constant": true,
      "inputs": [
        {
          "name": "",
          "type": "bytes32"
        }
      ],
      "name": "taTipTotal",
      "outputs": [
        {
          "name": "",
          "type": "uint256"
        }
      ],
      "payable": false,
      "stateMutability": "view",
      "type": "function"
    },
    {
      "constant": true,
      "inputs": [],
      "name": "owner",
      "outputs": [
        {
          "name": "",
          "type": "address"
        }
      ],
      "payable": false,
      "stateMutability": "view",
      "type": "function"
    },
    {
      "constant": true,
      "inputs": [],
      "name": "numTokens",
      "outputs": [
        {
          "name": "",
          "type": "uint256"
        }
      ],
      "payable": false,
      "stateMutability": "view",
      "type": "function"
    },
    {
      "constant": true,
      "inputs": [
        {
          "name": "",
          "type": "uint256"
        }
      ],
      "name": "tokenList",
      "outputs": [
        {
          "name": "",
          "type": "address"
        }
      ],
      "payable": false,
      "stateMutability": "view",
      "type": "function"
    },
    {
      "constant": true,
      "inputs": [
        {
          "name": "",
          "type": "address"
        }
      ],
      "name": "tokenRegistered",
      "outputs": [
        {
          "name": "",
          "type": "bool"
        }
      ],
      "payable": false,
      "stateMutability": "view",
      "type": "function"
    },
    {
      "constant": true,
      "inputs": [],
      "name": "token",
      "outputs": [
        {
          "name": "",
          "type": "address"
        }
      ],
      "payable": false,
      "stateMutability": "view",
      "type": "function"
    },
    {
      "inputs": [],
      "payable": false,
      "stateMutability": "nonpayable",
      "type": "constructor"
    },
    {
      "anonymous": false,
      "inputs": [
        {
          "indexed": false,
          "name": "name",
          "type": "string"
        },
        {
          "indexed": false,
          "name": "amount",
          "type": "uint256"
        }
      ],
      "name": "TokenPurchased",
      "type": "event"
    },
    {
      "anonymous": false,
      "inputs": [
        {
          "indexed": false,
          "name": "name",
          "type": "string"
        },
        {
          "indexed": false,
          "name": "amount",
          "type": "uint256"
        }
      ],
      "name": "TATipped",
      "type": "event"
    },
    {
      "anonymous": false,
      "inputs": [
        {
          "indexed": false,
          "name": "name",
          "type": "string"
        },
        {
          "indexed": false,
          "name": "number",
          "type": "uint256"
        }
      ],
      "name": "TokenRegistered",
      "type": "event"
    },
    {
      "constant": false,
      "inputs": [
        {
          "name": "studentToken",
          "type": "address"
        }
      ],
      "name": "purchaseToken",
      "outputs": [],
      "payable": false,
      "stateMutability": "nonpayable",
      "type": "function"
    },
    {
      "constant": false,
      "inputs": [
        {
          "name": "name",
          "type": "string"
        },
        {
          "name": "amount",
          "type": "uint256"
        }
      ],
      "name": "tipTA",
      "outputs": [],
      "payable": false,
      "stateMutability": "nonpayable",
      "type": "function"
    },
    {
      "constant": false,
      "inputs": [
        {
          "name": "studentToken",
          "type": "address"
        }
      ],
      "name": "registerToken",
      "outputs": [],
      "payable": false,
      "stateMutability": "nonpayable",
      "type": "function"
    },
    {
      "constant": true,
      "inputs": [],
      "name": "getTokenList",
      "outputs": [
        {
          "name": "",
          "type": "address[]"
        }
      ],
      "payable": false,
      "stateMutability": "view",
      "type": "function"
    }
  ],
  "bytecode": "0x6080604052600060055534801561001557600080fd5b50336000806101000a81548173ffffffffffffffffffffffffffffffffffffffff021916908373ffffffffffffffffffffffffffffffffffffffff16021790555061005e6100c0565b604051809103906000f08015801561007a573d6000803e3d6000fd5b50600160006101000a81548173ffffffffffffffffffffffffffffffffffffffff021916908373ffffffffffffffffffffffffffffffffffffffff1602179055506100d0565b60405161127a8061119c83390190565b6110bd806100df6000396000f3006080604052600436106100a3576000357c0100000000000000000000000000000000000000000000000000000000900463ffffffff1680623b19cf146100a857806309824a801461011b578063273cbaa01461015e57806371b97b90146101ca5780638da5cb5b1461020f5780638e499bcf146102665780639ead722214610291578063a2e1ce62146102fe578063cd77a0c814610359578063fc0c546a1461039c575b600080fd5b3480156100b457600080fd5b50610119600480360381019080803590602001908201803590602001908080601f0160208091040260200160405190810160405280939291908181526020018383808284378201915050505050509192919290803590602001909291905050506103f3565b005b34801561012757600080fd5b5061015c600480360381019080803573ffffffffffffffffffffffffffffffffffffffff16906020019092919050505061065b565b005b34801561016a57600080fd5b50610173610a62565b6040518080602001828103825283818151815260200191508051906020019060200280838360005b838110156101b657808201518184015260208101905061019b565b505050509050019250505060405180910390f35b3480156101d657600080fd5b506101f96004803603810190808035600019169060200190929190505050610af0565b6040518082815260200191505060405180910390f35b34801561021b57600080fd5b50610224610b08565b604051808273ffffffffffffffffffffffffffffffffffffffff1673ffffffffffffffffffffffffffffffffffffffff16815260200191505060405180910390f35b34801561027257600080fd5b5061027b610b2d565b6040518082815260200191505060405180910390f35b34801561029d57600080fd5b506102bc60048036038101908080359060200190929190505050610b33565b604051808273ffffffffffffffffffffffffffffffffffffffff1673ffffffffffffffffffffffffffffffffffffffff16815260200191505060405180910390f35b34801561030a57600080fd5b5061033f600480360381019080803573ffffffffffffffffffffffffffffffffffffffff169060200190929190505050610b71565b604051808215151515815260200191505060405180910390f35b34801561036557600080fd5b5061039a600480360381019080803573ffffffffffffffffffffffffffffffffffffffff169060200190929190505050610b91565b005b3480156103a857600080fd5b506103b161106b565b604051808273ffffffffffffffffffffffffffffffffffffffff1673ffffffffffffffffffffffffffffffffffffffff16815260200191505060405180910390f35b600160009054906101000a900473ffffffffffffffffffffffffffffffffffffffff1673ffffffffffffffffffffffffffffffffffffffff166323b872dd3330846040518463ffffffff167c0100000000000000000000000000000000000000000000000000000000028152600401808473ffffffffffffffffffffffffffffffffffffffff1673ffffffffffffffffffffffffffffffffffffffff1681526020018373ffffffffffffffffffffffffffffffffffffffff1673ffffffffffffffffffffffffffffffffffffffff1681526020018281526020019350505050602060405180830381600087803b1580156104ec57600080fd5b505af1158015610500573d6000803e3d6000fd5b505050506040513d602081101561051657600080fd5b8101908080519060200190929190505050508060026000846040518082805190602001908083835b602083101515610563578051825260208201915060208101905060208303925061053e565b6001836020036101000a038019825116818451168082178552505050505050905001915050604051809103902060001916600019168152602001908152602001600020600082825401925050819055507f9937c8357151d811373b71f3ee922c765fb02b13159afd09079b62427800763f82826040518080602001838152602001828103825284818151815260200191508051906020019080838360005b8381101561061c578082015181840152602081019050610601565b50505050905090810190601f1680156106495780820380516001836020036101000a031916815260200191505b50935050505060405180910390a15050565b600073ffffffffffffffffffffffffffffffffffffffff168173ffffffffffffffffffffffffffffffffffffffff161415151561069757600080fd5b60008173ffffffffffffffffffffffffffffffffffffffff166306fdde036040518163ffffffff167c0100000000000000000000000000000000000000000000000000000000028152600401600060405180830381600087803b1580156106fd57600080fd5b505af1158015610711573d6000803e3d6000fd5b505050506040513d6000823e3d601f19601f82011682018060405250602081101561073b57600080fd5b81019080805164010000000081111561075357600080fd5b8281019050602081018481111561076957600080fd5b815185600182028301116401000000008211171561078657600080fd5b5050929190505050511415151561079c57600080fd5b600460003373ffffffffffffffffffffffffffffffffffffffff1673ffffffffffffffffffffffffffffffffffffffff16815260200190815260200160002060009054906101000a900460ff161515156107f557600080fd5b6001600460003373ffffffffffffffffffffffffffffffffffffffff1673ffffffffffffffffffffffffffffffffffffffff16815260200190815260200160002060006101000a81548160ff02191690831515021790555060038190806001815401808255809150509060018203906000526020600020016000909192909190916101000a81548173ffffffffffffffffffffffffffffffffffffffff021916908373ffffffffffffffffffffffffffffffffffffffff160217905550506005600081548092919060010191905055507fc6b4257a7637705c771a06280b3ef74ffa168ce7add91923675edb2a1556ab528173ffffffffffffffffffffffffffffffffffffffff166306fdde036040518163ffffffff167c0100000000000000000000000000000000000000000000000000000000028152600401600060405180830381600087803b15801561094a57600080fd5b505af115801561095e573d6000803e3d6000fd5b505050506040513d6000823e3d601f19601f82011682018060405250602081101561098857600080fd5b8101908080516401000000008111156109a057600080fd5b828101905060208101848111156109b657600080fd5b81518560018202830111640100000000821117156109d357600080fd5b50509291905050506005546040518080602001838152602001828103825284818151815260200191508051906020019080838360005b83811015610a24578082015181840152602081019050610a09565b50505050905090810190601f168015610a515780820380516001836020036101000a031916815260200191505b50935050505060405180910390a150565b60606003805480602002602001604051908101604052809291908181526020018280548015610ae657602002820191906000526020600020905b8160009054906101000a900473ffffffffffffffffffffffffffffffffffffffff1673ffffffffffffffffffffffffffffffffffffffff1681526020019060010190808311610a9c575b5050505050905090565b60026020528060005260406000206000915090505481565b6000809054906101000a900473ffffffffffffffffffffffffffffffffffffffff1681565b60055481565b600381815481101515610b4257fe5b906000526020600020016000915054906101000a900473ffffffffffffffffffffffffffffffffffffffff1681565b60046020528060005260406000206000915054906101000a900460ff1681565b60008060009054906101000a900473ffffffffffffffffffffffffffffffffffffffff1673ffffffffffffffffffffffffffffffffffffffff163373ffffffffffffffffffffffffffffffffffffffff16141515610bee57600080fd5b8173ffffffffffffffffffffffffffffffffffffffff166108fc6103e89081150290604051600060405180830381858888f19350505050158015610c36573d6000803e3d6000fd5b508173ffffffffffffffffffffffffffffffffffffffff166370a08231306040518263ffffffff167c0100000000000000000000000000000000000000000000000000000000028152600401808273ffffffffffffffffffffffffffffffffffffffff1673ffffffffffffffffffffffffffffffffffffffff168152602001915050602060405180830381600087803b158015610cd257600080fd5b505af1158015610ce6573d6000803e3d6000fd5b505050506040513d6020811015610cfc57600080fd5b81019080805190602001909291905050509050600081111515610d1e57600080fd5b600160009054906101000a900473ffffffffffffffffffffffffffffffffffffffff1673ffffffffffffffffffffffffffffffffffffffff166340c10f198373ffffffffffffffffffffffffffffffffffffffff16638da5cb5b6040518163ffffffff167c0100000000000000000000000000000000000000000000000000000000028152600401602060405180830381600087803b158015610dc057600080fd5b505af1158015610dd4573d6000803e3d6000fd5b505050506040513d6020811015610dea57600080fd5b810190808051906020019092919050505068056bc75e2d631000006040518363ffffffff167c0100000000000000000000000000000000000000000000000000000000028152600401808373ffffffffffffffffffffffffffffffffffffffff1673ffffffffffffffffffffffffffffffffffffffff16815260200182815260200192505050602060405180830381600087803b158015610e8a57600080fd5b505af1158015610e9e573d6000803e3d6000fd5b505050506040513d6020811015610eb457600080fd5b8101908080519060200190929190505050507f0551dc8d14b558d27521b935bd317794961f0cc040d3052b785646d009165b4b8273ffffffffffffffffffffffffffffffffffffffff166306fdde036040518163ffffffff167c0100000000000000000000000000000000000000000000000000000000028152600401600060405180830381600087803b158015610f4b57600080fd5b505af1158015610f5f573d6000803e3d6000fd5b505050506040513d6000823e3d601f19601f820116820180604052506020811015610f8957600080fd5b810190808051640100000000811115610fa157600080fd5b82810190506020810184811115610fb757600080fd5b8151856001820283011164010000000082111715610fd457600080fd5b505092919050505068056bc75e2d631000006040518080602001838152602001828103825284818151815260200191508051906020019080838360005b8381101561102c578082015181840152602081019050611011565b50505050905090810190601f1680156110595780820380516001836020036101000a031916815260200191505b50935050505060405180910390a15050565b600160009054906101000a900473ffffffffffffffffffffffffffffffffffffffff16815600a165627a7a7230582055627cea86a595db586b514a06cb7215c3a8b3c92d386b12849a246b73eb325a002960806040526040805190810160405280600b81526020017f436c61737320546f6b656e00000000000000000000000000000000000000000081525060009080519060200190620000519291906200015f565b506040805190810160405280600381526020017f434c530000000000000000000000000000000000000000000000000000000000815250600190805190602001906200009f9291906200015f565b506012600260006101000a81548160ff021916908360ff160217905550348015620000c957600080fd5b5033600260016101000a81548173ffffffffffffffffffffffffffffffffffffffff021916908373ffffffffffffffffffffffffffffffffffffffff16021790555069d3c21bcecceda1000000600460003373ffffffffffffffffffffffffffffffffffffffff1673ffffffffffffffffffffffffffffffffffffffff168152602001908152602001600020819055506200020e565b828054600181600116156101000203166002900490600052602060002090601f016020900481019282601f10620001a257805160ff1916838001178555620001d3565b82800160010185558215620001d3579182015b82811115620001d2578251825591602001919060010190620001b5565b5b509050620001e29190620001e6565b5090565b6200020b91905b8082111562000207576000816000905550600101620001ed565b5090565b90565b61105c806200021e6000396000f3006080604052600436106100af576000357c0100000000000000000000000000000000000000000000000000000000900463ffffffff16806306fdde03146100b4578063095ea7b31461014457806318160ddd146101a957806323b872dd146101d4578063313ce5671461025957806340c10f191461028a57806370a08231146102ef5780638da5cb5b1461034657806395d89b411461039d578063a9059cbb1461042d578063dd62ed3e14610492575b600080fd5b3480156100c057600080fd5b506100c9610509565b6040518080602001828103825283818151815260200191508051906020019080838360005b838110156101095780820151818401526020810190506100ee565b50505050905090810190601f1680156101365780820380516001836020036101000a031916815260200191505b509250505060405180910390f35b34801561015057600080fd5b5061018f600480360381019080803573ffffffffffffffffffffffffffffffffffffffff169060200190929190803590602001909291905050506105a7565b604051808215151515815260200191505060405180910390f35b3480156101b557600080fd5b506101be610699565b6040518082815260200191505060405180910390f35b3480156101e057600080fd5b5061023f600480360381019080803573ffffffffffffffffffffffffffffffffffffffff169060200190929190803573ffffffffffffffffffffffffffffffffffffffff169060200190929190803590602001909291905050506106a3565b604051808215151515815260200191505060405180910390f35b34801561026557600080fd5b5061026e610a62565b604051808260ff1660ff16815260200191505060405180910390f35b34801561029657600080fd5b506102d5600480360381019080803573ffffffffffffffffffffffffffffffffffffffff16906020019092919080359060200190929190505050610a75565b604051808215151515815260200191505060405180910390f35b3480156102fb57600080fd5b50610330600480360381019080803573ffffffffffffffffffffffffffffffffffffffff169060200190929190505050610c41565b6040518082815260200191505060405180910390f35b34801561035257600080fd5b5061035b610c8a565b604051808273ffffffffffffffffffffffffffffffffffffffff1673ffffffffffffffffffffffffffffffffffffffff16815260200191505060405180910390f35b3480156103a957600080fd5b506103b2610cb0565b6040518080602001828103825283818151815260200191508051906020019080838360005b838110156103f25780820151818401526020810190506103d7565b50505050905090810190601f16801561041f5780820380516001836020036101000a031916815260200191505b509250505060405180910390f35b34801561043957600080fd5b50610478600480360381019080803573ffffffffffffffffffffffffffffffffffffffff16906020019092919080359060200190929190505050610d4e565b604051808215151515815260200191505060405180910390f35b34801561049e57600080fd5b506104f3600480360381019080803573ffffffffffffffffffffffffffffffffffffffff169060200190929190803573ffffffffffffffffffffffffffffffffffffffff169060200190929190505050610f72565b6040518082815260200191505060405180910390f35b60008054600181600116156101000203166002900480601f01602080910402602001604051908101604052809291908181526020018280546001816001161561010002031660029004801561059f5780601f106105745761010080835404028352916020019161059f565b820191906000526020600020905b81548152906001019060200180831161058257829003601f168201915b505050505081565b600081600360003373ffffffffffffffffffffffffffffffffffffffff1673ffffffffffffffffffffffffffffffffffffffff16815260200190815260200160002060008573ffffffffffffffffffffffffffffffffffffffff1673ffffffffffffffffffffffffffffffffffffffff168152602001908152602001600020819055508273ffffffffffffffffffffffffffffffffffffffff163373ffffffffffffffffffffffffffffffffffffffff167f8c5be1e5ebec7d5bd14f71427d1e84f3dd0314c0f7b2291e5b200ac8c7c3b925846040518082815260200191505060405180910390a36001905092915050565b6000600554905090565b60008073ffffffffffffffffffffffffffffffffffffffff168373ffffffffffffffffffffffffffffffffffffffff16141515156106e057600080fd5b600460008573ffffffffffffffffffffffffffffffffffffffff1673ffffffffffffffffffffffffffffffffffffffff16815260200190815260200160002054821115151561072e57600080fd5b600360008573ffffffffffffffffffffffffffffffffffffffff1673ffffffffffffffffffffffffffffffffffffffff16815260200190815260200160002060003373ffffffffffffffffffffffffffffffffffffffff1673ffffffffffffffffffffffffffffffffffffffff1681526020019081526020016000205482111515156107b957600080fd5b61080b82600460008773ffffffffffffffffffffffffffffffffffffffff1673ffffffffffffffffffffffffffffffffffffffff16815260200190815260200160002054610ff990919063ffffffff16565b600460008673ffffffffffffffffffffffffffffffffffffffff1673ffffffffffffffffffffffffffffffffffffffff168152602001908152602001600020819055506108a082600460008673ffffffffffffffffffffffffffffffffffffffff1673ffffffffffffffffffffffffffffffffffffffff1681526020019081526020016000205461101290919063ffffffff16565b600460008573ffffffffffffffffffffffffffffffffffffffff1673ffffffffffffffffffffffffffffffffffffffff1681526020019081526020016000208190555061097282600360008773ffffffffffffffffffffffffffffffffffffffff1673ffffffffffffffffffffffffffffffffffffffff16815260200190815260200160002060003373ffffffffffffffffffffffffffffffffffffffff1673ffffffffffffffffffffffffffffffffffffffff16815260200190815260200160002054610ff990919063ffffffff16565b600360008673ffffffffffffffffffffffffffffffffffffffff1673ffffffffffffffffffffffffffffffffffffffff16815260200190815260200160002060003373ffffffffffffffffffffffffffffffffffffffff1673ffffffffffffffffffffffffffffffffffffffff168152602001908152602001600020819055508273ffffffffffffffffffffffffffffffffffffffff168473ffffffffffffffffffffffffffffffffffffffff167fddf252ad1be2c89b69c2b068fc378daa952ba7f163c4a11628f55a4df523b3ef846040518082815260200191505060405180910390a3600190509392505050565b600260009054906101000a900460ff1681565b6000600260019054906101000a900473ffffffffffffffffffffffffffffffffffffffff1673ffffffffffffffffffffffffffffffffffffffff163373ffffffffffffffffffffffffffffffffffffffff16141515610ad357600080fd5b610ae88260055461101290919063ffffffff16565b600581905550610b4082600460008673ffffffffffffffffffffffffffffffffffffffff1673ffffffffffffffffffffffffffffffffffffffff1681526020019081526020016000205461101290919063ffffffff16565b600460008573ffffffffffffffffffffffffffffffffffffffff1673ffffffffffffffffffffffffffffffffffffffff168152602001908152602001600020819055508273ffffffffffffffffffffffffffffffffffffffff167f0f6798a560793a54c3bcfe86a93cde1e73087d944c0ea20544137d4121396885836040518082815260200191505060405180910390a28273ffffffffffffffffffffffffffffffffffffffff16600073ffffffffffffffffffffffffffffffffffffffff167fddf252ad1be2c89b69c2b068fc378daa952ba7f163c4a11628f55a4df523b3ef846040518082815260200191505060405180910390a36001905092915050565b6000600460008373ffffffffffffffffffffffffffffffffffffffff1673ffffffffffffffffffffffffffffffffffffffff168152602001908152602001600020549050919050565b600260019054906101000a900473ffffffffffffffffffffffffffffffffffffffff1681565b60018054600181600116156101000203166002900480601f016020809104026020016040519081016040528092919081815260200182805460018160011615610100020316600290048015610d465780601f10610d1b57610100808354040283529160200191610d46565b820191906000526020600020905b815481529060010190602001808311610d2957829003601f168201915b505050505081565b60008073ffffffffffffffffffffffffffffffffffffffff168373ffffffffffffffffffffffffffffffffffffffff1614151515610d8b57600080fd5b600460003373ffffffffffffffffffffffffffffffffffffffff1673ffffffffffffffffffffffffffffffffffffffff168152602001908152602001600020548211151515610dd957600080fd5b610e2b82600460003373ffffffffffffffffffffffffffffffffffffffff1673ffffffffffffffffffffffffffffffffffffffff16815260200190815260200160002054610ff990919063ffffffff16565b600460003373ffffffffffffffffffffffffffffffffffffffff1673ffffffffffffffffffffffffffffffffffffffff16815260200190815260200160002081905550610ec082600460008673ffffffffffffffffffffffffffffffffffffffff1673ffffffffffffffffffffffffffffffffffffffff1681526020019081526020016000205461101290919063ffffffff16565b600460008573ffffffffffffffffffffffffffffffffffffffff1673ffffffffffffffffffffffffffffffffffffffff168152602001908152602001600020819055508273ffffffffffffffffffffffffffffffffffffffff163373ffffffffffffffffffffffffffffffffffffffff167fddf252ad1be2c89b69c2b068fc378daa952ba7f163c4a11628f55a4df523b3ef846040518082815260200191505060405180910390a36001905092915050565b6000600360008473ffffffffffffffffffffffffffffffffffffffff1673ffffffffffffffffffffffffffffffffffffffff16815260200190815260200160002060008373ffffffffffffffffffffffffffffffffffffffff1673ffffffffffffffffffffffffffffffffffffffff16815260200190815260200160002054905092915050565b600082821115151561100757fe5b818303905092915050565b600080828401905083811015151561102657fe5b80915050929150505600a165627a7a72305820296f1d8a5f45c5222b3ac8e8d853606c8677809b7962a57091fafe0de3b28e270029",
  "source": "pragma solidity ^0.4.23;\n\nimport \"./ClassToken.sol\";\nimport \"./StudentToken.sol\";\n\ncontract Class {\n  address public owner;\n  ClassToken public token;\n\n  mapping(bytes32 => uint256) public taTipTotal;\n\n  event TokenPurchased(string name, uint256 amount);\n  event TATipped(string name, uint256 amount);\n  event TokenRegistered(string name, uint256 number);\n\n  address[] public tokenList;\n  mapping(address => bool) public tokenRegistered;\n  uint256 public numTokens = 0;\n\n  /**\n   * @dev Throws if called by any account other than the owner.\n   */\n  modifier onlyOwner() {\n    require(msg.sender == owner);\n    _;\n  }\n\n  constructor () public {\n    owner = msg.sender;\n    token = new ClassToken();\n  }\n\n  function purchaseToken(StudentToken studentToken) onlyOwner public {\n    address(studentToken).transfer(1000); // transfer 1000 WEI\n    uint256 bal = studentToken.balanceOf(address(this));\n    require(bal > 0);\n    token.mint(studentToken.owner(), 100 * 10 ** 18); // Mint 100 tokens for the token's owner\n    emit TokenPurchased(studentToken.name(), 100 * 10 ** 18);\n  }\n\n  function tipTA(string name, uint256 amount) public {\n    token.transferFrom(msg.sender, address(this), amount);\n    taTipTotal[keccak256(name)] += amount;\n    emit TATipped(name, amount);\n  }\n\n  function registerToken(StudentToken studentToken) public {\n    require(studentToken != address(0));\n    require(bytes(studentToken.name()).length != 0);\n    require(!tokenRegistered[msg.sender]);\n    tokenRegistered[msg.sender] = true;\n    tokenList.push(studentToken);\n    numTokens++;\n    emit TokenRegistered(studentToken.name(), numTokens);\n  }\n  \n  function getTokenList() public view returns (address[]) {\n    return tokenList;\n  }\n}\n",
  "sourcePath": "/Users/maheshmurthy/training/training-contracts/contracts/Class.sol",
  "compiler": {
    "name": "solc",
    "version": "0.4.23+commit.124ca40d.Emscripten.clang"
  },
  "schemaVersion": "2.0.0",
  "updatedAt": "2018-04-24T23:41:53.906Z"
}